:0F016600FEFDFBF7EFDFF98EC001010101010182
:10012700758911758CFAE4F58AD2AFD2A9758B78E7
:08013700758DECD2ABD28E22D3
:03001B0002009947
:10009900C0E0C083C082C0D075D000C000C006C017
:1000A90007758B78758DEC7580FFAF4DEF3395E053
:1000B900FE74662FF58274013EF583E493F5A0740E
:1000C9002D254DF8E690016C93F580054DC3E54D5E
:1000D900648094864003754D00D007D006D000D0C7
:0800E900D0D082D083D0E032B8
:03000B000200F1FF
:1000F100C0E0C0D075D000C000C00730001CC200F5
:10010100A290E433FF74342533F8A6070533C28C7B
:10011100758CFA758A00D28C8003753300D007D0B4
:0601210000D0D0D0E03256
:1001560020000CC28C758CFA758A90D28CD2002243
:10001E00E4F54EE54E254EFF2435F8E6FE74342FFA
:10002E00F8E62EFF7421254EF8A6077421254EF80A
:10003E00E6600AE54E254E2434F8E66007054EE5E7
:10004E004EB40CCFE4F533E54E640C703D90016F69
:10005E009365217035A3936522702FA3936523704A
:10006E0029A39365247023A393B5251EA3E493B50A
:10007E002618E4F54E7427254EF8E6FF742D254E0E
:0B008E00F8A607054EE54EB406EB2275
:10013F00120127209003120156C3E533648094996E
:07014F0040F112001E80ECDC
:0300000002000EED
:0C000E00787FE4F6D8FD75814E02013FBA
:00000001FF
