:0E0BB400C0F9A4B0999282F880900804020162
:070BE500D29700D296002216
:0D0BC200D29700D29600C29700C296002282
:0A0BDB00C29700D29600D2970022C4
:080B4700120BC27FA0120A90FC
:100B4F00D2960030970BE51BC394FA5004051B8017
:040B5F00F2C2960048
:010B6300226F
:100A4800D297D296A29792E7C296D296A29792E6AA
:100A5800C296D296A29792E5C296D296A29792E4AF
:100A6800C296D296A29792E3C296D296A29792E2A3
:100A7800C296D296A29792E1C296D296A29792E097
:080A8800C296D297C296FF222C
:100A9000EFA2E79297D296C296A2E69297D296C21A
:100AA00096A2E59297D296C296A2E49297D296C267
:100AB00096A2E39297D296C296A2E29297D296C25B
:100AC00096A2E19297D296C296A2E09297D296C24F
:060AD00096D297C29622A7
:100B6400AE05AD07120B47AF05120A90120B4FAF3B
:0A0B740006120A90120B4F020BDB71
:020B2800AE0716
:100B2A00120B47AF06120A90120B4F120BC27FA18B
:0C0B3A00120A90120B4F120A48120BDB3B
:010B4600228C
:0E0BA600EF1FAC0670011E4C60030080F322AE
:1009FD00AB07AA067C037DE81209A88E088F097C37
:100A0D00007D64AF03AE021209A87C007D0A1209B5
:100A1D00A88C0A8D0B7C007D0AAF03AE021209A8CB
:100A2D007C007D0A1209A88C0F8D10AE02AF037CDD
:0B0A3D00007D0A1209A88C128D132204
:100B0500E4FFFED291C292C29100FDD292309003D1
:100B1500430701C292EF25E0FFEE33FE0DBD08EB62
:020B2500D2916B
:010B270022AB
:100AD600EF7806C333CE33CED8F9FFC294C293E47F
:100AE600FDEE339295D293EF25E0FFEE33FEC293EF
:0E0AF6000DBD0CEDD294C293E4FD0DBD0CFCC1
:010B040022CE
:1008000020B0657F0A7E00120BA620B00D75110185
:100810000515E515700B05148007E4F511F514F5C1
:100820001520B020E511B4011BC3E515942CE51487
:10083000940140107405250DF50DE4350CF50CE41C
:10084000F514F51530B014E511B4010F050DE50DE3
:100850007002050CE4F514F515F511C3E50C9404CC
:100860004006750C03750DFF20B1607F0A7E0012F3
:100870000BA620B10B751A010515E51570020514BC
:1008800020B121E51AB4011CC3E515942CE514949C
:1008900001401174FB250DF50D74FF350CF50CE4CA
:1008A000F514F51530B114E51AB4010FE50D150D69
:1008B0007002150CE4F514F515F51AD3E50D940046
:1008C000E50C94005005E4F50CF50D20B2227F6490
:1008D0007E00120BA620B203750E0130B212E50E97
:1008E000B4010DE4F50E7F14120B28750C008F0D6A
:1008F00020B31F7F647E00120BA620B3037518017E
:1009000030B30FE518B4010AE4F518AD0D7F1412E9
:030910000B642253
:100B7E00C2AF758901C28C758A78758CECD2B9D2E8
:060B8E00A9D2AFD28C22B7
:100B9400120B7E120BE5120800AF0DAE0C120AD632
:020BA40080F4DB
:03000B00020913D4
:10091300C0E0C0F0C083C082C0D075D000C000C0AA
:1009230002C003C004C005C006C007C28C758A7824
:10093300758CEC0517E51770020516C39404E516CC
:1009430094004006751600751700120B051209FD79
:10095300D28C7580FFE516702BE51714600E1460BA
:100963000F1460182403701CE5138012E510800E29
:10097300E50B900BB493547FF5808008E509900B49
:10098300B493F580E517900BBE93F5A0D007D0067E
:10099300D005D004D003D002D000D0D0D082D083F1
:0509A300D0F0D0E032AD
:03000000020BCF21
:0C0BCF00787FE4F6D8FD75811B020B94C2
:1009A800BC000BBE0029EF8DF084FFADF022E4CC33
:1009B800F875F008EF2FFFEE33FEEC33FCEE9DECFC
:1009C800984005FCEE9DFE0FD5F0E9E4CEFD22ED42
:1009D800F8F5F0EE8420D21CFEADF075F008EF2F8C
:1009E800FFED33FD4007985006D5F0F222C398FD7D
:0509F8000FD5F0EA221A
:00000001FF
