:100302003F065B4F666D7D077F6F20100804020178
:0B031E00EF1FAC0670011E4C70F622B1
:10022C00E4FDD2907F08FE12031EC2907F507E0028
:10023C0012031ED2907F0E7E0012031EA290E43396
:08024C00FD7F147E0002031E79
:1002A100E4FB7D08C290EBC313FBD2903090034373
:0D02B10003807F087E0012031EDDE9AF030D
:0102BE00221D
:0802540012025C12022C7FCCA7
:02025C00AD07EC
:10025E007B08C290ED1392907F0A7E0012031ED28D
:0E026E0090EDC313FDDBEB7F087E0002031E44
:1001F900E4F513FF1202577F441202547FBE120224
:100209005C1202A18F0B1202A18F0CE50B540FF5A2
:100219000DE50BC4540FF50BE50CC454F0F50C4572
:020229000BFFC9
:01022B0022B0
:10027C00AA05A9071202577F4E12025CAF011202A7
:10028C005CAF0212025C7F7F1202547F4812025450
:05029C007FB802025CC6
:1002BF001202577FBE12025C1202A1AA071202A1FC
:0C02CF00AA071202A18F081202A18F0AD8
:0102DB002200
:1002F200758901758CEC758A78D28CD2AFD2A9221D
:03000B0002000EE2
:10000E00C0E0C0F0C083C082C0D075D000C000C0B8
:0B001E0002C003C004C005C006C007FC
:10002900C28CC2AF758CEC758A78D28CD2AF0509B7
:10003900E509C394C840387509001201F9750E0025
:100049008F0FE50F30E722E50DF4FF540F75F00F20
:1000590084FDE50FF4FBEB2DFD751000ED547FF5E4
:1000690011EF04540FF50D8006850E10850F11E56B
:100079001290030C93F580E5121460251460401466
:10008900700302012124036003020149438080E5D2
:100099000D75F00AA4FFAEF07C007D101201C3803B
:1000A90067438080AE10AF117C007D0A12016E7427
:1000B900022DF58274033CF583E49344808055C393
:1000C900E511940AE51094005013C3E50F9480E5F7
:1000D9000E9400500843808075A0008060D3E50F1E
:1000E9009480E50E94004012E511940AE5109400FD
:1000F900500843808075A0408043438080AE10AF94
:10010900117C007D0A12016E74022FF58274033E80
:10011900F583E493F5A08025D3E50F9480E50E944B
:10012900004017AE10AF117C007D0A12016ED3EFAB
:100139009400EE9400400343808075A04053807F73
:0C0149000512E512C39403400375120078
:10015500D007D006D005D004D003D002D000D0D02F
:09016500D082D083D0F0D0E0324A
:1002DC001202F2C3E5119423E51094004004C28687
:0602EC0080F1D28680EDD6
:03000000020312E6
:0C031200787FE4F6D8FD7581130202DC50
:10016E00BC000BBE0029EF8DF084FFADF022E4CC75
:10017E00F875F008EF2FFFEE33FEEC33FCEE9DEC3E
:10018E00984005FCEE9DFE0FD5F0E9E4CEFD22ED84
:10019E00F8F5F0EE8420D21CFEADF075F008EF2FCE
:1001AE00FFED33FD4007985006D5F0F222C398FDBF
:0501BE000FD5F0EA225C
:1001C300C2D5EC30E709B2D5E4C39DFDE49CFCEE57
:1001D30030E715B2D5E4C39FFFE49EFE12016EC360
:1001E300E49DFDE49CFC800312016E30D507C3E45B
:0601F3009FFFE49EFE22C6
:00000001FF
