:10097700C0F9A4B0999282F88090FEFDFBF7EFDFF3
:03098700010D005F
:10096700758901758CF8758A30D28CD2AFD2A922DD
:03000B00020800E8
:10080000C0E0C0F0C083C082C0D0C28CC2AF758CC3
:10081000F8758A30D28CD2AF7580FF050CE50C706C
:1008200002050BC394F4E50B9401400A750B0075A7
:100830000C000508B200E508C3943C4005750800AB
:10084000050AE50AC3943C4005750A000509E50957
:10085000C394184003750900E50D14601A14601F55
:100860001460201460251460362405703EE5087578
:10087000F00A84E5F0802EE50875F00A848026E50C
:100880000A800AE50A75F00A84801AE50975F00AFB
:1008900084E5F090097793F580A2009287800CE5BB
:1008A0000975F00A8490097793F580E50D90098128
:1008B00093F5A0050DE50DC394064003750D00D01A
:0A08C000D0D082D083D0F0D0E03217
:1009560075081E750A1E75090875A0FF12096780BD
:01096600FE92
:030000000208CA29
:0C08CA00787FE4F6D8FD7581200209114A
:1008D600020956E493A3F8E493A34003F68001F2D9
:1008E60008DFF48029E493A3F85407240CC8C33323
:1008F600C4540F4420C8834004F456800146F6DFF2
:10090600E4800B0102040810204080900987E47EF1
:10091600019360BCA3FF543F30E509541FFEE493E6
:10092600A360010ECF54C025E060A840B8E493A3AD
:10093600FAE493A3F8E493A3C8C582C8CAC583CAD8
:10094600F0A3C8C582C8CAC583CADFE9DEE780BE90
:01098A00006C
:00000001FF
