:100BD700C0F9A4B0999282F88090FF8E86FEFDFB43
:050BE700F7EFDFBF7F06
:030C0800011500D3
:100BEC00758901758CF8758A30D28CD2A9D2AF2256
:0C0BFC00EF4E6007EF1F70F81E80F5221E
:1008000020B3417FF47E01120BFC20B3340515E5C3
:1008100015B40703E4F515E515B401027C04E515EC
:10082000B402027C02E515B40302E4FCE515B4044D
:10083000027C04E515B405027C02E515B40602E469
:10084000FC30B3FD20B56BE51560677F887E131221
:100850000BFC20B55D740D2CF8E675F00AA4FF744E
:100860000C2CF8E62FFD0DBD3C02E4FDBD180DE596
:100870001564016005E515B40402E4FDE51524FEE8
:1008800060141460151460161460171460182405A1
:1008900070208D0B801C8D1780188D1480148D1680
:1008A00080108D12800CE51370047F0180027F00A0
:1008B0008F1320B475E51560717F887E13120BFCD1
:1008C00020B467740D2CF8E675F00AA4FF740C2CA4
:1008D000F8E62FFD1DC3ED64809480500DE515648E
:1008E000016005E515B404027D17C3ED64809480B2
:1008F00050027D3BE51524FE60141460151460164B
:10090000146017146018240570208D0B801C8D173F
:1009100080188D1480148D1680108D12800CE513B4
:1009200070047F0180027F008F1320B23EE4F51532
:10093000E5137005750C0B8003750C0C750D0AE53D
:100940001275F00A8485F00EE51275F00A84F50F31
:10095000E51675F00A8485F010E51675F00A84F541
:0B09600011E513B40105D297E4F50A7D
:01096B002269
:100A6E007580FF30B50320B404E4FF8007E50875F8
:100A7E00F0FFA4FFE51C900BE493F5A0E515B40779
:100A8E00004003020B19900A9BF8282873020AB043
:100A9E00020AB2020ABD020ACC020AD9020AE60210
:100AAE000AF98043E51CC39404740C40548045E558
:100ABE001C6402602EE51CB4030280278029E51C0D
:100ACE00D39401740C5002802B8036E51CC3940421
:100ADE00740C4002801E8029E51C64026005E51C32
:100AEE00B40304740C800D740C8016E51CD39401B1
:100AFE00740C500D251CF8E6900BD7934FF58080A3
:100B0E000A251CF8E6900BD793F580051CE51CB45E
:050B1E000603E4F51CD4
:010B230022AF
:03000B0002096C7B
:10096C00C0E0C0F0C083C082C0D075D000C000C051
:01097C000773
:10097D00758CF8758A30120A6E051BE51B70020521
:10098D001AE515601930B30630B50320B4037509A7
:10099D0000E509C3940A4006751500750900E51BAD
:1009AD0064FA451A6003020A5FF51AF51BE5087033
:1009BD00047F0180027F008F080519E5197002057B
:1009CD0018640245187024F518F51905090514E584
:1009DD0014B43C177514000517E517B43C0D7517C5
:1009ED0000050BE50BB41803750B00E515D3940347
:1009FD00502FE51475F00A8485F00CE51475F00A96
:100A0D0084F50DE51775F00A8485F00EE51775F080
:100A1D000A84F50FE50B75F00A8485F010E50B805F
:100A2D002BE5137005750C0B8003750C0C750D0AF9
:100A3D00E51275F00A8485F00EE51275F00A84F55D
:100A4D000FE51675F00A8485F010E51675F00A8429
:020A5D00F51191
:0F0A5F00D007D000D0D0D082D083D0F0D0E032FA
:100BB000120BEC120800E513B401F8E5176512609A
:100BC00003750A01E50BB516EAE517B512E5E50A66
:070BD000B401E0C29780DCD4
:03000000020B24CC
:0C0B2400787FE4F6D8FD75811C020B6B95
:100B3000020BB0E493A3F8E493A34003F68001F220
:100B400008DFF48029E493A3F85407240CC8C333C6
:100B5000C4540F4420C8834004F456800146F6DF95
:100B6000E4800B0102040810204080900C08E47E11
:100B7000019360BCA3FF543F30E509541FFEE4938A
:100B8000A360010ECF54C025E060A840B8E493A351
:100B9000FAE493A3F8E493A3C8C582C8CAC583CA7C
:100BA000F0A3C8C582C8CAC583CADFE9DEE780BE34
:010C0B0000E8
:00000001FF
