:0D010C00D29700D29100C29700C29100224C
:0A012500C29700D29100D297002289
:0800AC0012010C7FA0120049B3
:1000B400D2910030970BE508C394FA5004050880E8
:0400C400F2C29100F3
:0100C8002215
:10004900EFA2E79297D291C291A2E69297D291C27A
:1000590091A2E59297D291C291A2E49297D291C2CC
:1000690091A2E39297D291C291A2E29297D291C2C0
:1000790091A2E19297D291C291A2E09297D291C2B4
:0400890091D2972257
:10000300D297D291A29792E7C291D291A29792E608
:10001300C291D291A29792E5C291D291A29792E412
:10002300C291D291A29792E3C291D291A29792E206
:10003300C291D291A29792E1C291D291A29792E0FA
:06004300C291D297FF22DA
:1000C900AE05AD071200ACAF051200491200B4AF7E
:0A00D900061200491200B4020125CE
:02008D00AE07BC
:10008F001200ACAF061200491200B412010C7FA18E
:0C009F001200491200B4120003120125E7
:0100AB002232
:1000FB00E4FEEEC39F5009E4FD0DBD64FC0F80F2DE
:01010B0022D1
:07012F00D29700D2910022DB
:1000E30012012F7D777F051200C97F641200FB7F09
:0800F3000512008D8F8080FED4
:03000000020119E1
:0C011900787FE4F6D8FD7581080200E351
:00000001FF
