:0300000002013BBF
:0C013B00787FE4F6D8FD75810702000310
:10004B00414D435520484152445741524500444588
:10005B0056454C4F504D454E54205445414D004153
:10006B004D43552038394335310053544152544593
:10007B005220204B49540030313233343536373827
:02008B0039003A
:09008D007BFF1201197FB87E0B04
:10009600D3EF9400EE94004015E4FCFD0DBD000185
:0E00A6000CED647D4C70F5EF1F70E51E80E2DE
:0100B4002229
:1000F100C295C296D2948FA07F147E00120096C240
:0401010094D29522DD
:10010500C295D296D2948FA07F147E00120096C21B
:0401150094D29522C9
:100119001200D8FF600C120105740129F9E43AFABA
:0301290080EE2243
:0600B5007F017C007E00CB
:1000BB00AB07AA06EB64014A7005ED24808009EBBF
:0D00CB0064024A7007ED24C0FF1200F1220C
:0F012C007F381200F17F0C1200F17F6C0200F19E
:0A0147007F011200F17F020200F1B7
:1000030012012C1201471201477D011200B57BFF3B
:100013007A00794B120119E4FDFC7F02FE1200BB4A
:100023007A00795912008D1201477D031200B57BC6
:10003300FF7A00796A1201197D027F021200B77AF2
:0800430000797512008D80BEEA
:1000D800BB010689828A83E0225002E722BBFE0226
:0900E800E32289828A83E4932259
:00000001FF
