:10090800FEFDFBF7EEDEBE7EEDDDBD7DEBDBBB7BEA
:10091800E7D7B77700C000F900A400B000990092AB
:08092800008200F8008000903D
:03093B0001085858
:0B093000EF1FAC0670011E4C70F62299
:10088C00AD077580FFED75F00A84E5F025E0241CBA
:10089C00F582E43409F583740193F58075A0FE7F2D
:1008AC00E87E031209307580FFED75F00A8425E0AF
:1008BC00241CF582E43409F583740193F58075A04A
:0808CC00FD7FE87E0302093004
:1008D400E4FBEB90090893F5B065B060177FC87E20
:1008E40000120930E4FFEF90090C93B5B0028F08B1
:1008F4000FBF11F2AF0812088C0BEBC3940440D263
:04090400E4FB80CEC2
:03000000020800F3
:0C080000787FE4F6D8FD758108020847F7
:10080C000208D4E493A3F8E493A34003F68001F226
:10081C0008DFF48029E493A3F85407240CC8C333ED
:10082C00C4540F4420C8834004F456800146F6DFBC
:10083C00E4800B010204081020408090093BE47E08
:10084C00019360BCA3FF543F30E509541FFEE493B1
:10085C00A360010ECF54C025E060A840B8E493A378
:10086C00FAE493A3F8E493A3C8C582C8CAC583CAA3
:10087C00F0A3C8C582C8CAC583CADFE9DEE780BE5B
:01093E0000B8
:00000001FF
