:1001260000C000F900A400B000990092008200F817
:100136000080009000FE00FD00FB00F700EF00DFEE
:06014600C292C290D292A9
:0F014C00EF7F08A2E09291D290C290C313DFF42C
:01015B002281
:0F015C007F08C313A29192E7D290C290DFF4FF05
:01016B002271
:0F017C00AE05120146AF0612014CD290C292227C
:0A01970012014612015CD290C292E0
:0101A100223B
:1000B600E4FD7F8E12017C7D567F8012017C7D34AB
:1000C6007F8212017C7D127F8412017C7D257F86D2
:1000D60012017C7D087F8812017C7D057F8A1201D2
:0F00E6007C7D097F8C12017C7D807F8E02017CE6
:1000F5007F81120197EF540FF50AEFC4540FF50BEA
:100105007F83120197EF540FF50CEFC4540FF50DD3
:100115007F85120197EF540FF50EEFC4540FF50FBD
:0101250022B7
:03000B0002000EE2
:10000E00C0E0C0F0C083C082C0D075D000C000C0B8
:01001E0007DA
:10001F00C28C758CEC758A78D28C0510E510B4649F
:10002F000F751000E50970047F0180027F008F09B2
:10003F001200F5E50975F080A4F50843087F758077
:10004F00FFE51125E0243AF582E43401F5837401CC
:10005F0093F5A0E51164026005E511B4041A740A62
:10006F002511F8E625E02426F582E43401F58374A2
:10007F0001935508F5808016740A2511F8E625E0DE
:10008F002426F582E43401F583740193F58005117C
:08009F00E511B4060375110020
:0F00A700D007D000D0D0D082D083D0F0D0E032BC
:10016C00758901758CEC758A78D28CD2A9D2AF22A4
:0800030012016C1200B680FE30
:0300000002018B6F
:0C018B00787FE4F6D8FD758111020003B6
:00000001FF
