:1000990001030206040C0809F9F8FCF4F6F2F3F17D
:0C00A900E4FFE4FE0EBEFFFC0FBF19F6E2
:0100B5002228
:1000030020B0091200A920B003750801E508B40166
:100013000D30B00A750B01E4F50CF50DF50820B1B0
:10002300091200A920B103750901E509B4010D30D6
:10003300B10AE4F50B750C01F50DF50920B20912AF
:1000430000A920B203750A01E50AB4010D30B20A12
:0B005300E4F50BF50C750D01F50A2219
:08005E00EC93F5907F647E0035
:10006600EF1FAA0670011E4A600BE4FDEDC3947DE6
:0500760050EE0D80F7C3
:01007B002262
:0C00B600E4FC90009912005E0CBC08F6FF
:0100C200221B
:0C00C300E4FC9000A112005E0CBC08F6EA
:0100CF00220E
:10007C00120003E50BB401031200B6E50CB4010346
:0D008C001200C3E50DB401E875900F80E38C
:030000000200D02B
:0C00D000787FE4F6D8FD75810D02007CFD
:00000001FF
