:10014E00C0F9A4B0999282F88090DFEFF7FBFDFE24
:1000A800AB07AA067C037DE812000E8F087C007D52
:1000B80064AF03AE0212000E7C007D0A12000E8DA2
:1000C800097C007D0AAF03AE0212000E7C007D0A97
:1000D80012000E8D0AAE02AF037C007D0A12000EDC
:0300E8008D0B225B
:10011500E4FFFED294C291C29400FDD291309503C2
:10012500430701C291EF25E0FFEE33FE0DBD08EB5D
:02013500D29462
:0101370022A5
:03000B000200EB05
:1000EB00C0E0C0D0C28C758AF0758CD8050DE50DBB
:1000FB007002050CC39404E50C94004006750C00CB
:0A010B00750D00D28CD0D0D0E03288
:10013800C2AF758901C28C758AF0758CD8D2B9D2D4
:06014800A9D2AFD28C2207
:100063001201381201151200A87580FFE50C702BE0
:10007300E50D14600E14600F1460182403701CE562
:100083000B8012E50A800EE50990014E93547FF52B
:10009300808008E50890014E93F580E50D900158A6
:0500A30093F5A080BEF2
:0300000002015E9C
:0C015E00787FE4F6D8FD75810D02006387
:10000E00BC000BBE0029EF8DF084FFADF022E4CCD6
:10001E00F875F008EF2FFFEE33FEEC33FCEE9DEC9F
:10002E00984005FCEE9DFE0FD5F0E9E4CEFD22EDE5
:10003E00F8F5F0EE8420D21CFEADF075F008EF2F2F
:10004E00FFED33FD4007985006D5F0F222C398FD20
:05005E000FD5F0EA22BD
:00000001FF
