:0633A700C2B0C2B1D2B0B9
:1033AD00E4FEEF1392B2D2B1C2B1EFC313FF0EBE62
:0233BD0008F016
:0133BF0022EB
:1033EF00E4FFFEEFC313FF30B203430780D2B1C235
:0533FF00B10EBE08EE56
:0134040022A5
:0D000E001233A7AF051233ADD2B1C2B0223C
:0A3449001233A71233EFD2B1C2B064
:013453002256
:102FD900AD087F8C12000EE509541FFD7F88120091
:102FE9000EE50A543FFD7F8612000EE50B54BFFD26
:102FF9007F8412000EE50C547FFD7F8212000EE5DE
:103009000D547FFD7F8012000EE50E5407FD7F8A67
:0330190002000EA4
:102D77007F8D123449EFC4540F75F00AA4FEEF5447
:102D87000F2E1215747F89123449EF541FC4540F44
:102D970075F00AA4FEEF540F2E9000011215867FDE
:102DA70087123449EF543FC4540F75F00AA4FEEF5D
:102DB700540F2E9000021215867F85123449EF5466
:102DC7003FC4540F75F00AA4FEEF540F2E90000372
:102DD7001215867F83123449EF547FC4540F75F060
:102DE7000AA4FEEF540F2E9000041215867F81125D
:102DF7003449EF547FC4540F75F00AA4FEEF540F03
:102E07002E9000051215867F89123449EF541790CA
:102E170000011215867F8B123449EF540790000684
:032E27000215860B
:10001E003A0001020408102040804020100CE32218
:10002E002222FE22222222020000040404040704DB
:10003E000404FF040404040404000000000000FF94
:10004E001111111111FF00000000004020100C03CF
:10005E0001010121413F00000000000000FE42426C
:10006E004242424242FE000000000000003F1010DB
:10007E0010101010103F0000000000FC4444FC2043
:10008E002424243F24E424242000001F08081F01F8
:10009E0001051941817F010101008040209887826E
:1000AE0080808384983060C0400000804020100F14
:1000BE00000020403F00000000001212D2FE9111FD
:1000CE00C0381000FF0008106000040300FF00831A
:1000DE0080404020231008040300101091D6309861
:1000EE00000808F8080808FC0800020100FF018259
:1000FE00402018074080403F0000008080808080B4
:10010E0080808080808080C0800000000000000021
:10011E0000000000000000000000000004040404C1
:10012E000404040404060400000000101010101053
:10013E001010101010101018100000048484848405
:10014E008484848484848404000000202020202061
:10015E002020202020202020200000FE020202FE6F
:10016E000202FE02020202FE0000007F282423206B
:10017E00202021222222227F0000000282828282FF
:10018E00FE828282C2820200000020202020203FB8
:10019E00202020203F202030200010101010109121
:1001AE00121E9410101010101000004020100C039E
:1001BE0001000001020C7830000000404040404039
:1001CE0040FE202020202020200000000000000003
:1001DE00003F404040404038000000000000807C5E
:1001EE000800007E840000000000201008060100B8
:1001FE0000000000010618301000001010101090C2
:10020E007F101010F81000000000004020100C03AA
:10021E00000000007F4040782000404040404040B9
:10022E0040FF4040404040404000000000000000C1
:10023E00007F00000000000000000020180888E881
:10024E001F6A880888C8A81C080008040241FF40DD
:10025E00201001020D18702020000000FE02222244
:10026E002222FA222222E202020040300F00402017
:10027E001806010020603F000000000000BE2A2A80
:10028E002AEA2A2A2A2A3E00000000484641494905
:10029E00497F49494949494140000004FF5454549B
:1002AE00FF0400FE222222FE000042221B02020A4E
:1002BE00336218070222423F0000000202C202020D
:1002CE0002FE828282C2830200004040407F404094
:1002DE00407F404040404060400000002010081722
:1002EE00A444A4940C04000000000404020201259E
:1002FE002448488001010206020000FE2222FF422D
:10030E0048487F48487FC8684000403F0282FF004F
:10031E0000FF49494949FF01000000060909E6F0BE
:10032E001808080818307800000000000000070FB9
:10033E001830202020100800000020202020FE2051
:10034E0020202020FE202030200000000000FF4052
:10035E0040404040FF0000000000221408F44221FB
:10036E00F817D2929292DF9210000442817F000021
:10037E00FF8544241F2444C6440008284888681872
:10038E0000FC061544847E040000100806010214C9
:10039E00101312121A52827F020000221408F40364
:1003AE0020988F88C88808FC0800084482413F00C6
:1003BE00001F08084F80403F000040221408F4023E
:1003CE0025A4643F342CA4322000080442817F020D
:1003DE0001FF49494949FF01000000BE2AAA292907
:1003EE00E022AA2A2AAA3F020000407F20240940C8
:1003FE007F202409001F6080E0000040300E0808B6
:10040E0008FF0808080C0880000001010101010125
:10041E0001FF01010101010101000000F8484848F7
:10042E00F84F4A2A2B0AA818000080403F80403C13
:10043E000405057F858181E000002010F814131259
:10044E0012F21A161210F8100000008083412119C2
:10045E0007013F4145594340700010101010109095
:10046E007F10F0121410D0181000008040300C23B2
:10047E0020103F4442414040780000F010FF10F041
:10048E002018C8090E08882818002067221F123B62
:10049E0000003F4442414140700000000202FA0257
:1004AE0002020202FF020080000008080808090983
:1004BE00090909094D89413F010000088888898A88
:1004CE008CF88C8A89C88C0800000808080808086F
:1004DE0008FF08080808080C08000000FC84A4A403
:1004EE00A4A5FEA4A4A4F4A6840040300F808242EA
:1004FE00221A071A222247C04000404044444C743E
:10050E0045C644645C464460400000040404040490
:10051E0004FF0404040406040000000004040404A0
:10052E0004FC04020203028000000101414141412A
:10053E00417F414141614101010000804A32928A6E
:10054E0086808798A4528880800001808444442449
:10055E00140F14142466C40100000000FE2222228F
:10056E0022FE22222222FF020000000007020202C7
:10057E0002FF0202020207000000000404040484C9
:10058E004424140C040000000000000038464140D2
:10059E00404040404040407800000404C44444447D
:1005AE0044FC44444444E44604000000FF001008A8
:1005BE000403020458807F000000000404040404B5
:1005CE0004FC0404040406040000000000000040C3
:1005DE00807F00000000000000000000F8080808FE
:1005EE0008087F880A0C08C8000040300F00000081
:1005FE00404020131C244380E0000002F24242429D
:10060E004242424242FF0200000000003F40404092
:10061E00404040404040407800000000F888888804
:10062E0088FF88888888FC08000000001F080808DA
:10063E0008FF080808081F0000000202F21212FE4E
:10064E00121212FE1212FA1302000000FF444A495F
:10065E004848484D4941FF0000000000F80808884E
:10066E0008087F880A0C08C8000040300F010101FD
:10067E00414020131C244380E000080808088848E5
:10068E00291E88486808080C0800008090514925EA
:10069E002311080C122340C00000808082828282C7
:1006AE0082E2A2928A8680C0800000000000004094
:1006BE00807F0000000000000000000002828282A5
:1006CE00FE82828282FF0200000040404040407F56
:1006DE0040404040407F40604000100CA4A4A4A4C1
:1006EE00A5E6A4A4A4B4A4140C0000804F4A2A2AA0
:1006FE000A0F0A2A2A4A4F8000000000FC04020357
:10070E00FA0000FC040404FE0400004047242212F8
:10071E000F0000FF0204080700000000FE929292F4
:10072E00929292929A93C280000040300F0000FF86
:10073E004023040814122060200000FE4242424270
:10074E00424242424242FF020000003F40404040CF
:10075E004040404040404040700000402018070498
:10076E0004FC0404040604800000010101010101DF
:10077E0001FF01010101010101008088888888883C
:10078E0088FF888888888CC88000002010080402A2
:10079E0001FF0102040810301000000000000000EC
:1007AE0000000000000000000000000038FCFC38D3
:1007BE0000000000000D0D000000000E1E00001EC7
:1007CE000E00000000000000000020F8F820F8F8ED
:1007DE002000020F0F020F0F0200387C444747CC57
:1007EE0098000306041C1C07030030300080C06014
:1007FE0030000C060301000C0C0080D87CE4BCD841
:10080E004000070F0808070F080000101E0E00001A
:10081E00000000000000000000000000F0F80C04D2
:10082E000000000003070C0800000000040CF8F0A4
:10083E0000000000080C0703000080A0E0C0C0E02C
:10084E00A0800002030101030200008080E0E0802E
:10085E008000000000030300000000000000000004
:10086E0000000000101E0E0000008080808080803E
:10087E0080000000000000000000000000000000EA
:10088E0000000000000C0C00000000000080C060A2
:10089E0030000C06030100000000F8FC04C424FC28
:1008AE00F800070F0908080F0700001018FCFC00DD
:1008BE0000000008080F0F080800080C84C4643CF0
:1008CE0018000E0F0908080C0C00080C444444FCD8
:1008DE00B800040C0808080F0700C0E0B098FCFC34
:1008EE008000000000080F0F08007C7C4444C4C444
:1008FE008400040C0808080F0700F0F84C4444C0AC
:10090E008000070F0808080F07000C0C0484C47C35
:10091E003C0000000F0F00000000B8FC444444FCF3
:10092E00B800070F0808080F0700387C444444FC41
:10093E00F800000808080C07030000000030300023
:10094E00000000000006060000000000003030002D
:10095E0000000000080E060000000080C060301885
:10096E00080000000103060C0800404040404040D3
:10097E00400002020202020202000008183060C0AB
:10098E00800000080C0603010000181C04C4E43C9F
:10099E0018000000000D0D000000F0F808C8C8F89F
:1009AE00F000070F080B0B0B0100E0F0988C98F08D
:1009BE00E0000F0F0000000F0F0004FCFC4444FC8D
:1009CE00B800080F0F08080F0700F0F80C04040C0D
:1009DE00180003070C08080C060004FCFC040CF8B5
:1009EE00F000080F0F080C07030004FCFC44E40C95
:1009FE001C00080F0F08080C0E0004FCFC44E40C4D
:100A0E001C00080F0F0800000000F0F80C84848C06
:100A1E00980003070C0808070F00FCFC404040FC40
:100A2E00FC000F0F0000000F0F00000004FCFC0480
:100A3E0000000000080F0F08000000000004FCFC7E
:100A4E000400070F08080F07000004FCFCC0F03C70
:100A5E000C00080F0F00010F0E0004FCFC04000038
:100A6E000000080F0F08080C0E00FCFC387038FC54
:100A7E00FC000F0F0000000F0F00FCFC3870E0FCB4
:100A8E00FC000F0F0000000F0F00F0F80C040CF824
:100A9E00F00003070C080C07030004FCFC44447C24
:100AAE003800080F0F0800000000F8FC040404FCD6
:100ABE00F800070F080E3C3F270004FCFC44C4FC62
:100ACE003800080F0F00000F0F00183C6444C49C40
:100ADE001800060E0808080F0700001C0CFCFC0C82
:100AEE001C000000080F0F080000FCFC000000FCBA
:100AFE00FC00070F0808080F0700FCFC000000FCB4
:100B0E00FC000103060C06030100FCFC008000FC47
:100B1E00FC00030F0E030E0F03000C3CF0C0F03C64
:100B2E000C000C0F0300030F0C00003C7CC0C07CBB
:100B3E003C000000080F0F0800001C0C84C4643C2D
:100B4E001C000E0F0908080C0E000000FCFC04042B
:100B5E00000000000F0F080800003870E0C0800091
:100B6E0000000000000103070E0000000404FCFC5E
:100B7E000000000008080F0F0000080C0603060C0A
:100B8E00080000000000000000000000000000004F
:100B9E000000202020202020202000000307040039
:100BAE000000000000000000000000A0A0A0E0C0B7
:100BBE000000070F0808070F080004FCFC2060C0A7
:100BCE008000080F0708080F0700C0E020202060F3
:100BDE004000070F0808080C040080C06024FCFCCD
:100BEE000000070F0808070F0800C0E0A0A0A0E053
:100BFE00C000070F0808080C040040F8FC440C184D
:100C0E000000080F0F0800000000C0E02020C0E028
:100C1E002000276F48487F3F000004FCFC4020E086
:100C2E00C000080F0F00000F0F00000020ECEC00BA
:100C3E0000000000080F0F0800000000000020EC6C
:100C4E00EC0000307040407F3F0004FCFC80C06030
:100C5E002000080F0F01030E0C00000004FCFC0026
:100C6E0000000000080F0F080000E0E060C060E028
:100C7E00C0000F0F000F000F0F0020E0C02020E07B
:100C8E00C000000F0F00000F0F00C0E0202020E07A
:100C9E00C000070F0808080F070020E0C02020E062
:100CAE00C000407F7F48080F0700C0E02020C0E052
:100CBE002000070F08487F7F400020E0C0602060C2
:100CCE00C000080F0F080000000040E0A0202060C8
:100CDE004000040C09090B0E04002020F8FC202013
:100CEE0000000000070F080C0400E0E00000E0E048
:100CFE000000070F0808070F080000E0E00000E002
:100D0E00E0000003070C0C070300E0E0000000E029
:100D1E00E000070F0C070C0F07002060C080C060BA
:100D2E002000080C0703070C0800E0E0000000E0BC
:100D3E00E000474F4848683F1F00606020A0E06019
:100D4E0020000C0E0B09080C0C00004040F8BC04EF
:100D5E000400000000070F080800000000BCBC00E3
:100D6E0000000000000F0F000000000404BCF8405B
:100D7E0040000008080F07000000080C040C080CC7
:100D8E000400000000000000000080C0603060C061
:100D9E00800007070404040707000000000080C05D
:100DAE00C0C0C0C0C0800000000000F0FEFF0F01F8
:100DBE0000000000010FFFFEF000001F7FFFE000AB
:100DCE000000000000E0FFFF1F000000000103070D
:100DDE0006060606070301000000000000000000E2
:100DEE000000C0C00000000000000000000C0C0C51
:100DFE000EFFFFFF000000000000000000000000DA
:100E0E0000FFFFFF000000000000000000000000D7
:100E1E00000707070000000000000000000000802F
:100E2E00C0C0C0C0C080000000000000003C3F3FBA
:100E3E0003000000C1FFFF7E0000000000C0E0F0D4
:100E4E00781C0E07030100000000000007070706CC
:100E5E00060606060606060600000000000080C014
:100E6E00C0C0C0C080800000000000000C0F0F0347
:100E7E00008080C1FF7F3E0000000070F0F0800017
:100E8E000001010387FFFEFC0000000001030307C1
:100E9E000606060603030100000000000000000025
:100EAE00000080C0C0C00000000000000080E0F024
:100EBE003C0E07FFFFFF00000000001C1E1F19184C
:100ECE00181818FFFFFF1818180000000000000087
:100EDE0000000007070700000000000000C0C0C0AF
:100EEE00C0C0C0C0C0C0C00000000000F8FFCFC02E
:100EFE00606060E0E0C08000000000E0E1E1000022
:100F0E000000000001FFFF7E000000000307070E37
:100F1E000C0C0C0E07070100000000000000008002
:100F2E0080C0C0C0C0C0800000000000F0FCFF8F79
:100F3E00C1606060E0E1C787060000003FFFFF81EF
:100F4E00000000000081FFFF7E0000000000010392
:100F5E00070606060707030100000000C0C0C0C058
:100F6E00C0C0C0C0C0C0C0C0000000000000000073
:100F7E00000000E0FEFF1F03000000000000000064
:100F8E00C0F8FF3F07000000000000000000000650
:100F9E00070701000000000000000000000080C0F4
:100FAE00C0C0C0C080000000000000003E7FFFC136
:100FBE00808080C1FF7F3E00000000F8FEFE8703A8
:100FCE000101010387FEFEF8000000000103030784
:100FDE00060606070303010000000000000080C0A3
:100FEE00C0C0C0C0C080000000000000FCFFFF8336
:100FFE00010000000183FFFEF8000000C0C1C3071E
:10100E000606060683E1FF7F1F00000000010307AE
:10101E0006060607030301000000000000000000A2
:10102E0000000000000000000000000000000000B2
:10103E0000000000000000000000000000000000A2
:10104E000000000000000000000000000000000092
:10105E0000000000000000000000000007070080F4
:10106E008F1F0303000000000000000000000001BD
:10107E00000001C183030000010000000000000019
:10108E00000000004060F0FCFFFFF9FDFFFDF1E104
:10109E00F9F9F9F9F9F9F1F1E0C0C0C0C0000000AA
:1010AE0000000000000000000000001F1C1F1E1F9B
:1010BE001E1F1F1E1F1E1F001F1D1F1E1F1E1F1F58
:0410CE001E1F1E1FA4
:10314800013B00012D00013C00012E00013E000161
:103158003200013F00013300014000013D0001251C
:1031680000C193C188C191C18FC189C19201240056
:06317800C10CC110C10EE4
:0B345400EF1FAC0670011E4C70F6224A
:1032DC00E4FDFCC3ED9FEC9E5015E4FBFA0BBB0028
:0F32EC00010ABA03F8BBE8F50DBD00010C80E440
:0132FB0022B0
:10337300EF14600C14600E2402700EC291C29022EE
:0A338300D291C29022C291D2902292
:103200007580FFD293C292D294D294C2947580FFFB
:10321000D293C292D294AF807580FFEF30E703D390
:073220008001C350F1C294CC
:013227002284
:10317F00ED75F080A4FFEC7A002FFFEA35F0FEE545
:0C318F00092FF582E5083EF583E493FF6C
:10319B00AE07123200D292C2938E80D294C2942286
:0733D8007F011233737F3FF8
:1033DF00AE07123200C292C2938E80D294C2942250
:10331B001232007580FFD292D293D294D294C2947F
:0D332B007580FFD292D293D294AF80C294ED
:013338002272
:10338D00C2957F327E00123454D295E4FF1233730E
:0A339D007F3E1233DF7F3F0233DF73
:0B341800123373ED75F008121525FF4C
:07342300EF24B8FF0233DFC4
:0A342A007F0212337353053FAF0514
:07343400EF2440FF0233DF2B
:1033C0001233737F3F1233DFE50804FF123423E426
:0133D000FFFD
:0733D100EF24C0FF0233DF0F
:10309B00E4FF123373E4FDFC7F3F1233DFAF051205
:1030AB0034237F401233DFE4FF1233D1E4FBFAE425
:1030BB00FF12319B0BBB00010AEB64404A70F00D11
:0A30CB00BD00010CED64084C70CE4E
:0130D50022D8
:022CB700AB0769
:102CB900C3EB648094C0504D7F01123418AF0312E6
:102CC900343412331BAC07ED75F00830161A12159F
:102CD90025AFF0EF3395E0FE74202FF58274003EA6
:102CE900F583E49342048019121525AFF0EF33956B
:102CF900E0FE74202FF58274003EF583E493F452CC
:102D090004AF038060EBFF3395E0FEC3EF9480EEE0
:102D19006480948050577F02123418EB24C0FF124C
:102D2900343412331BAC07ED75F00830161A12153E
:102D390025AFF0EF3395E0FE74202FF58274003E45
:102D4900F583E49342048019121525AFF0EF33950A
:102D5900E0FE74202FF58274003EF583E493F4526B
:0D2D690004EB24C0FF123434AF0412319B80
:012D7600223A
:062A2B008F0C8D0D8B0ED7
:102A3100E50C650E7035E50DD3950F4012850C112F
:102A4100850E0C85110E850D11850F0D85110F85D4
:102A51000D10E510D3950F4003022B0EA21592160F
:102A6100AD10AF0C122CB7051080E7E50CD3950E15
:102A71004012850C11850E0C85110E850D11850FE7
:102A81000D85110FC3E50E950CFDE49400FCE412D5
:102A91001375C004C005C006C007C3E50F950DFD41
:102AA100E49400FCE4121375D003D002D001D000ED
:102AB1001212D38F158E148D138C12E4F510C3E509
:102AC1000E950CFFE510C39F5043E50C2510FFC088
:102AD10007AC10E412137AAB15AA14A913A81212A9
:102AE10011CAC004C005C006C007AC0DE412137AB8
:102AF100D003D002D001D0001210D91213AEAD070D
:0D2B0100A2159216D007122CB7051080B156
:012B0E0022A4
:10301C008F088D098B0A85090FA2149215122A2B81
:10302C00850B0FA2149215AB0AAD09AF0A122A2B0D
:10303C00850B0FA2149215AB08AD0BAF0A122A2BFD
:10304C0085090FA2149215AB08AD0BAF08022A2B01
:06305C008F178D188B197F
:10306200E517D39519400C8519178F19AF18851AD2
:10307200188F1AE4F51BC3E5199517FFE51BD39FBB
:103082005016E517251BFBFF851A0FA21A9215ADE4
:0830920018122A2B051B80DE39
:01309A002213
:041F49007B017F0495
:061F4D008F088B0AA905B4
:101F5300E4FDEDC3950A40030221DCE4FCED75F0DA
:101F630010A4FFE97A002FFFEA35F0FEEC2FFFEA19
:101F73003EFEC3EF9440EE64809480507A1233D8CF
:101F8300AF081233CCEDC454F0292CFF1234343093
:101F93001537ED75F020A4FFEC3014152FFFEA354B
:101FA300F0FEE50C2FF582E50B3EF583E49302206A
:101FB300977A002FFFEA35F0FEE50C2FF582E50B4B
:101FC3003EF583E493F4022097ED75F020A4FFEC33
:101FD3007A002FFFEA35F0FEE50C2F30140CF58262
:101FE300E50B3EF583E493022095F582E50B3EF580
:101FF30083E493F4022095ED75F010A4FFE97A00D1
:102003002FFFEA35F0FEEC2FFFEA3EFEC3EF94808C
:10201300EE64809480400302209B7F021233DAAF88
:10202300081233CCEDC454F0292C24C0FF123434ED
:10203300301535ED75F020A4FFEC3014142FFFEAB2
:1020430035F0FEE50C2FF582E50B3EF583E4938036
:10205300157A002FFFEA35F0FEE50C2FF582E50B2C
:102063003EF583E493F4802CED75F020A4FFEC7A25
:10207300002FFFEA35F0FEE50C2F30140BF582E557
:102083000B3EF583E493800AF582E50B3EF583E48A
:1020930093F44401FF12319B0CEC64106003021FA4
:1020A300607C10EDC454F0292C24F0C39440400309
:1020B30002213CE5082401FFE433FEC3EF9408EE5C
:1020C3006480948040030221CF7F011233C0EDC4AA
:1020D30054F0292C24F0FF12343430162EED75F011
:1020E30020A4FFEC7A002FFFEA35F0FEE50C2F3039
:1020F300140CF582E50B3EF583E4930221CBF582C4
:10210300E50B3EF583E493F40221CBED75F020A4B7
:10211300FFEC7A002FFFEA35F0FEE50C2F30140CAC
:10212300F582E50B3EF583E4930221C9F582E50BC5
:102133003EF583E493F40221C9EDC454F0292C2421
:10214300F0C3947F40030221CFE5082401FFE43369
:10215300FEC3EF9408EE6480948050707F021233C4
:10216300C0EDC454F0292C24B0FF12343430162CA3
:10217300ED75F020A4FFEC7A002FFFEA35F0FEE5C1
:102183000C2F30140BF582E50B3EF583E493800AA4
:10219300F582E50B3EF583E493F4802CED75F02096
:1021A300A4FFEC7A002FFFEA35F0FEE50C2F301484
:1021B3000BF582E50B3EF583E493800AF582E50B8C
:1021C3003EF583E493F44480FF12319B0CEC6420CE
:0921D30060030220A60D021F5555
:0121DC0022E0
:101C7E00751400751526D217C218C2197B027D4144
:021C8E00E4FF71
:061C90008F0E8D0F8B107A
:101C9600E4F516E516C395104003021F48AB13AAD8
:101CA60014A91585168275830012154724E0FDE4F4
:101CB600FCE51675F008A47A00250FFFEA35F0FE5C
:101CC600EC2FFFEA3EFEC3EF9440EE648094804022
:101CD60003021D571233D8AF0E1233CCE51675F03A
:101CE60008A4250F2CFF123434301837ED75F01088
:101CF600A4FFEC3017152FFFEA35F0FEE5122FF59D
:101D060082E5113EF583E493021DF77A002FFFEA80
:101D160035F0FEE5122FF582E5113EF583E493F4E6
:101D2600021DF7ED75F010A4FFEC7A002FFFEA35DF
:101D3600F0FEE5122F30170CF582E5113EF583E42F
:101D460093021DF5F582E5113EF583E493F4021D39
:101D5600F5E51675F008A47A00250FFFEA35F0FEC2
:101D6600EC2FFFEA3EFEC3EF9480EE648094804041
:101D760003021DFB7F021233DAAF0E1233CCE516D7
:101D860075F008A4250F2C24C0FF12343430183502
:101D9600ED75F010A4FFEC3017142FFFEA35F0FEB6
:101DA600E5122FF582E5113EF583E49380157A005E
:101DB6002FFFEA35F0FEE5122FF582E5113EF58399
:101DC600E493F4802CED75F010A4FFEC7A002FFF5D
:101DD600EA35F0FEE5122F30170BF582E5113EF5D8
:101DE60083E493800AF582E5113EF583E493F44497
:101DF60001FF12319B0CEC64086003021CB77C08DF
:101E0600E51675F008A4250F2C24F8F9C394404074
:101E160003021EA6E50E2401FFE433FEC3EF940879
:101E2600EE648094804003021F3A1233D8E50E1206
:101E360033CAE51675F008A4250F2C24F8FF1234D2
:101E46003430192EED75F010A4FFEC7A002FFFEA5E
:101E560035F0FEE5122F30170CF582E5113EF583BD
:101E6600E493021F36F582E5113EF583E493F4020E
:101E76001F36ED75F010A4FFEC7A002FFFEA35F05F
:101E8600FEE5122F30170CF582E5113EF583E4933B
:101E9600021F34F582E5113EF583E493F4021F3404
:101EA600E9C394804003021F3AE50E2401FFE433A0
:101EB600FEC3EF9408EE6480948050787F0212335C
:101EC600DAE50E1233CAE51675F008A4250F2C24A0
:101ED600B8FF12343430192CED75F010A4FFEC7AEB
:101EE600002FFFEA35F0FEE5122F30170BF582E5DD
:101EF600113EF583E493800AF582E5113EF583E40D
:101F060093F4802CED75F010A4FFEC7A002FFFEA15
:101F160035F0FEE5122F30170BF582E5113EF583FD
:101F2600E493800AF582E5113EF583E493F4448058
:101F3600FF12319B0CEC64106003021E06051602AC
:021F46001C99E4
:011F48002276
:0430D6008E088F09C8
:1030DA00E4FD1233D8AF051233CCE4FF123434E4E2
:1030EA00FC12317F0CBC40F97F021233DAAF0512B1
:1030FA0033CCE4FF1234347C4012317F0CBC80F9AB
:06310A000DED640870CC1D
:01311000229C
:062B0F008B828A83AC07F3
:102B15008D088D098D0A7F01123373AF0512343488
:102B2500AF04123423E4FBEDC39440400812342A69
:102B3500AF04123423E4933014028001F4FF123100
:102B45009BA30D0BBB10E07F01123373EC04FF1246
:102B55003423AD08AF05123434E4FBEDC394404093
:102B65000912342AEC04FF123423E4933014028052
:102B750001F4FF12319BA30D0BBB10DF7F01123354
:102B850073EC2402FF123423AD09AF05123434E48B
:102B9500FBEDC39440400A12342AEC2402FF1234A0
:102BA50023E4933014028001F4FF12319BA30D0B33
:102BB500BB10DE7F01123373EC2403FF123423AD07
:102BC5000AAF05123434E4FBEDC39440400A1234D5
:102BD5002AEC2403FF123423E4933014028001F419
:0A2BE500FF12319BA30D0BBB10DEA5
:012BEF0022C3
:10290900AFA0EF20E423E53CC394015003E4F53C78
:10291900052DE52DB40106433B10E4F53CE52DD327
:1029290094014026752D018021E52DC394015003A2
:10293900E4F52D053CE53CB40106533BEFE4F52DE8
:10294900E53CD394014003753C01EF20E523E53EC6
:10295900C394015003E4F53E052EE52EB401064368
:102969003B20E4F53EE52ED394014026752E0180E7
:1029790021E52EC394015003E4F52E053EE53EB44E
:102989000106533BDFE4F52EE53ED3940140037580
:102999003E01EF20E623E53FC394015003E4F53FF0
:1029A9000532E532B40106433B40E4F53FE532D355
:1029B900940140267532018021E532C39401500308
:1029C900E4F532053FE53FB40106533BBFE4F53278
:1029D900E53FD394014003753F01EF20E722E5402D
:1029E900C394015003E4F5400533E533B4010643CC
:1029F9003B80E4F540E533D394014025753301224A
:102A0900E533C394015003E4F5330540E540B401CF
:102A190006533B7FE4F533E540D394014003754009
:012A290001AB
:012A2A002289
:0E2F8A00A2119214C215C2167B6F7D06AF39DC
:062F9800AE07AC03AF051B
:102F9E00EE75F00A1215252430F508EE75F00A12BA
:102FAE001525AEF0EE2430F509AD04751107751236
:102FBE00A8751300751400751508A2149217A215A2
:0B2FCE009218A21692197B02021C90C0
:101990007F89123449EF541FC4540F75F00AA4FE16
:1019A000EF540F2EF535A2099214D215D2167B05ED
:1019B0007D02FF122F98750B00750C48D214D215BA
:1019C000D2167D05121F49E53675F00A8475F04080
:1019D000A424A8F582E5F0340DAB82FAA212921489
:1019E0007D1B7F02122B0FE53675F00A84AFF07570
:1019F000F040EFA424A8F582E5F0340DAB82FAA202
:101A00001292147D2B7F02122B0F750B02750C881E
:101A1000D214C215C2167B027D087F06121F4DE547
:101A20003AB4070F750B00750C68D214C215C216B4
:101A30001B801C75F020E53AA424E8F582E5F0341B
:101A400000AF82F50B8F0CD214C215C2167B017D3C
:101A5000287F06121F4DD214C215C2167B09E4FD61
:101A60007F14122F98A20F9214C215C2167B19E48C
:101A7000FDAF34122F98750B00750C28D214C215C7
:101A8000C2167B017D29E4FF121F4DAB36AD35AF89
:101A90003412164D782F7C007D007E007F031214D7
:101AA000FFE530B40108750B02750CC88018E530ED
:101AB000B40B08750B02750CE8800BE530B40C1202
:101AC000750B03750C08D214C215D2167B017D402C
:101AD0008028AF30EF3395E0FEEF7805C333CE3387
:101AE000CED8F924E8F58274003EAF82F50B8F0C56
:101AF000D214C215D2167B017D3F7F04121F4DE523
:101B00003175F00A1215256401701AE53175F00A75
:101B1000121525AFF0D3EF648094804008750B0256
:101B2000750C28804AE53175F00A1215256402709B
:101B30001AE53175F00A121525AFF0D3EF648094E1
:101B4000804008750B03750C488024E53175F00A58
:101B5000121525FF3395E0FEEF7805C333CE33CE63
:101B6000D8F924E8F58274003EAF82F50B8F0CD2D1
:101B700014C215D2167D5F121F49E53175F00A12A5
:101B80001525AFF0EF7008750B02750C288026E55F
:101B90003175F00A121525AFF0EF3395E0FEEF78BE
:101BA00005C333CE33CED8F924E8F58274003EAFB6
:101BB00082F50B8F0CD214C215D2167B017D6F7F7C
:101BC00004121F4DAF2FEF3395E0FEEF24D0FFEE50
:101BD0003407FE7C007D0C1215A8EDAE047805C319
:101BE00033CE33CED8F92468F58274033EAF82F544
:101BF0000B8F0CD214C215C2167B017D68E4FF1254
:101C00001F4DAF2FEF3395E0FEEF24D0FFEE3407EA
:101C1000FE7C007D0A1215A8EDAE047805C333CE14
:101C200033CED8F924E8F58274043EAF82F50B8FE9
:101C30000CD214D215D2167B017D5F7F02121F4D8C
:101C4000AF2FEF3395E0FEEF24D0FFEE3407FE7C9C
:101C5000007D0C1215A8EDAE047805C333CE33CE4B
:101C6000D8F92428F58274063EAF82F50B8F0CD28A
:0E1C700014D215D2167B017D6F7F02021F4D2C
:1027D800200A03022908C20A12346A7FCC12345F25
:1027E8007F141234057F4412329812346A7FCC1257
:1027F800345F7FBE1232987B007A0079087F02121C
:1028080031AB850820A201E433FCE412137AE4FB1F
:10281800FAF9783E1211CAC004C005C006C007A262
:1028280000E433FCE412137AE4FBFA7980783D1271
:1028380011CAD003D002D001D0001210D9C004C0F0
:1028480005C006C007A202E433FCE412137AE4FBD5
:10285800FA7980783E1211CAD003D002D001D00094
:102868001210D9C004C005C006C007A203E433FC97
:10287800E412137AE4FBFAF9783F1211CAD003D0B4
:1028880002D001D0001210D98F0D8E0C8D0B8C0A3E
:10289800E4FFFE7D207C41AB0DAA0CA90BA80A120F
:1028A80011CA1213AE75282EEF2430F529A205E4BB
:1028B8003325E0FFA204E4332FFFA206E43325E02A
:1028C80025E02FFFA207E43375F008A42FFF850940
:1028D80020532007E520C454F02FFF75F00A842404
:1028E80030F526EF75F00A84E5F02430F527752ACF
:1028F800DF7528437511077512A8751300121C7E21
:0129080022AC
:102F3500122F8AE5396004E5246011A2089214C2B3
:102F450015C2167B577D06AF38122F98E5397004E8
:102F5500E5386004E5246011A2139214C215C21667
:102F65007B3F7D06AF37122F98E5397008E538703D
:102F750004E5376004E524600B121990E524B407D5
:052F850003E4F5242225
:10333900753409753505753605753710753827E4FF
:0E334900F539AB36AD35AF34122BF08F3A228A
:10335700C20DD20AC20B758911D2A9D2AB758C3DA9
:0C336700758AB0758DD9758BF0D2AF223D
:1026690012338D12309B1227D87E107F681230D614
:10267900E4FFFEE4FDFC0DBD00010CBC7FF8BDFFCD
:10268900F50FBF00010EEF640A4E70E712309B751B
:102699000B3FD2147B7FE4FDFF12301C750F3ED235
:1026A900157B3EE4FD7F3E122A2B750F30D2157B38
:1026B9007F7D30E4FF122A2B750F0FD2157B7F7DAA
:1026C9000FE4FF122A2B750F30D2157B187D0F7F6F
:1026D90018122A2B750F20D2157B807D207F3F127F
:1026E9002A2B750F0FD2157B61E4FD7F61122A2B0E
:1026F90078087C007D007B007A0079347E007F07B2
:102709001214FF122FD97B007A007934122D771217
:102719001990122F8A7511077512A87513FF751470
:102729000075151ED217C218C2197B017D677F0675
:10273900121C90A2089214C215C2167B577D06AFCF
:1027490038122F987511077512A87513FF751400A3
:1027590075151ED217C218C2197B017D4F7F06124B
:102769001C90A2139214C215C2167B3F7D06AF3787
:10277900122F98750B02750C48D214D215D2167BFC
:10278900017D407F02121F4D750B02750C68D21432
:10279900D215D2167D507F02121F4D750B00750C94
:1027A90048D214C215D2167D4F7F04121F4D7511E0
:1027B900077512A81B8B13121C7E750B03750C2849
:0F27C900D214C215C2167B017D51E4FF021F4DD1
:102EB600E53775F00A84C454F0FFE53775F00A84E7
:102EC600E5F02FF537E53875F00A84C454F0FFE5D0
:102ED6003875F00A84E5F02FF538E53975F00A847F
:102EE600C454F0FFE53975F00A84E5F02FF539E5AD
:102EF6003475F00A84C454F0FFE53475F00A84E5AD
:102F0600F02FF534E53575F00A84C454F0FFE53545
:102F160075F00A84E5F02FF535E53675F00A84C4B8
:0F2F260054F0FFE53675F00A84E5F02FF53622FA
:10244F00300C0CC20C0524E524B40803E4F524D2A7
:10245F0013D208D211D20FD209D212E52424FE6072
:10246F001414601514601614601714601824057086
:10247F0016C2138012C208800EC211800AC21280C7
:10248F0006C2098002C20F20100302254AC210E5BE
:10249F002424FE601D1460271460311460611460E1
:1024AF006B240570720537E53775F0188485F037A2
:1024BF0080650538E53875F03C8485F0388058051F
:1024CF0039E53975F03C8485F039804BAF341232E1
:1024DF00FCE4339010B875F00D121641E475F00D51
:1024EF00A42583F583E5822535F582E43583F583CD
:1024FF00E493FFE5368FF084E5F004F5368018E5B8
:10250F003575F00C84E5F004F535800B0534E534B2
:10251F0075F0648485F034AB36AD35AF34122BF0E3
:10252F008F3A122EB678087C007D007B007A0079F6
:10253F00347E007F071214FF122FD9200E030226BC
:10254F0068C20EE52424FE602714603214603D1427
:10255F007003022625147003022639240560030236
:10256F002644E537241775F0188485F03702264482
:10257F00E538243B75F03C8485F038022644E53974
:10258F00243B75F03C8485F039022644AF34123277
:10259F00FCE4339010B875F00D121641E475F00D90
:1025AF00A42583F583E5822535F582E43583F5830C
:1025BF00E493253614FFC007AF341232FCE4339096
:1025CF0010B875F00D121641E475F00DA42583F5C2
:1025DF0083E5822535F582E43583F583E493FED0D8
:1025EF0007EF8EF08485F036E5367049AF3412323E
:1025FF00FCE4339010B875F00D121641E475F00D30
:10260F00A42583F583E5822535F582E43583F583AB
:10261F00E493F536801FE535240B75F00C8485F0B7
:10262F0035E535701075350C800BE534246375F086
:10263F00648485F034AB36AD35AF34122BF08F3A5E
:10264F00122EB678087C007D007B007A0079347EEC
:0A265F00007F071214FF122FD9228A
:1032BB00123357123339122669D28CD28E7B007A95
:1032CB00007934122D771227D8122F3512244F8004
:0132DB00EC06
:03000B0002324F6F
:10324F00C0E0C0D0758C3D758AB0053DE53DB41426
:10325F00050525753D00E525B42105752500D20A24
:05326F00D0D0D0E032D8
:03001B000231119E
:10311100C0E0C0D075D000C007758DD9758BF01295
:103121002909E53B30E405D20C533BEFE53B30E5A3
:1031310005D210533BDFE53B30E605D20E533BBFD2
:07314100D007D0D0D0E0322E
:03000700DFFE22F7
:10340500E4FEEEC39F500BE4FD00000DBDC8FA0EAF
:0234150080F045
:013417002292
:10327400D29600C2967F7D1200077F7D120007D28E
:10328400967F0F1200073096030080FA7F3C1200ED
:0432940007D29622A5
:0E343B00C2967F7D120007C2967F7D020007B9
:02322800AE07EF
:10322A00E4FDEE30E009C296000000D2968005C2A5
:10323A00960000007F1E120007D29600EEC313FE0E
:04324A000DBD08DED0
:01324E00225D
:1031D600E4FED29600FDEEC313FEC29600D2967FA1
:1031E60002120007003096034306807F1E12000776
:0931F600D296000DBD08DFAF0602
:0131FF0022AD
:04000300D29600226F
:03346A00023274B7
:0B345F00EF243470057FCC12322822CD
:10329800EF24426018247A70197F441232280012F1
:1032A800346D7FFA1234051234050234057FBE12DC
:0332B80032282297
:0831AB008F0E8B0F8A108911B1
:1031B300E4FCECC3950E50151231D6AB0FAA10A93F
:1031C300118C82758300EF1215860C80E512343B57
:0331D300020003F4
:03346D0002000357
:1021DD0004AE530A57485526BD0D26500D9544465D
:1021ED00AAB9056A4D09AD4224AEB604AE4A6A4D90
:1021FD00BE0A4D520D25465D52BA0B544E0D6A4323
:10220D00296D37095B4B749BC10497540A4B485B8E
:10221D0025BC06A55006D4454ADAB802B64D095775
:10222D00422497B704974A664B3E0D4A510EA54678
:10223D0056D4BA05AD4E02B644393738092E4B7C0B
:10224D0096BF0C95530D4A486DA53B0B554F056A2E
:10225D00454AADB9025D4D092D422C95B60A954AF8
:10226D007B4ABD06CA510B5546555ABB04DA4E0A78
:10227D005B43352BB8052B4C8A953F0E955206AA1C
:10228D00487AD53C0AB54F04B6454A57390A574DD9
:10229D000526423E93350D954975AABE056A51092D
:1022AD006D4654AEBB04AD4F0A4D434D26B70D25BB
:1022BD004B8D52BF0B54520B6A47696D3C095B50F5
:1022CD00049B454A4BB90A4B4DAB25C206A5540696
:1022DD00D4496ADA3D0AB6510937465497BB04977B
:1022ED004F064B4436A5370EA54A86B2BF05AC53F3
:1022FD000AB6475936BC092E500C96454D4AB80DB5
:10230D004A4C0DA54125AAB6056A497AADBD025DB7
:10231D0052092D475C95BA0A954E0B4A434B5537DA
:10232D000AD54A955ABF04BA530A5B48652BBC05BA
:10233D002B500A9345474AB906AA4C0AD54124DACF
:10234D00B604B64A69573D0A4E510D26465E933A7C
:10235D000D534D05AA4336B537096D4BB4AEBF04C9
:10236D00AD530A4D486D25BC0D254F0D52445DAA48
:10237D00380B5A4C056D4124ADB6049B4A7A4BBEC1
:10238D000A4B510AA5465B52BA06D24E0ADA4235BD
:10239D005B3709374B8497C1049753064B4866A5A5
:1023AD003C0EA54F06B2444AB6380AAE4C092E4231
:1023BD003C97350C96497D4ABD0D4A510DA54555A5
:1023CD00AABA056A4E0A6D43452EB7052D4B8A955F
:1023DD00BF0A95530B4A476B553B0AD54F055A45D6
:1023ED004A5D380A5B4C052B423A93B60693497702
:1023FD0029BD06AA510AD54654DABA04B64E0A5773
:10240D00434527380D264A8E933E0D52520DAA474D
:10241D0066B53B056D4F04AE454A4EB90A4D4C0DA0
:10242D0015412D92B50D5349001F1C1F1E1F1E1F58
:10243D001F1E1F1E1F001F1D1F1E1F1E1F1F1E1FC5
:02244D001E1F50
:02164D00AA05EC
:10164F00750E01750F017510087511008F1CEFFDD8
:10165F00C3E49DFDE49400FCC374649DFDE49CFC15
:10166F009021DC75F003ED121641EC75F003A42503
:10167F0083F583E493FE5460C4135407F51DEE54B1
:10168F001FF51EEF54037009EF75F06484E5F070D9
:10169F000D7E007C017D901215A8ED4C7005750B29
:1016AF00018003E4F50BEAFFAD1DED3395E0FCD3AC
:1016BF00ED9F7480F86C984075E50B75F00DA424C0
:1016CF0035F582E43424F583E5822AF582E4358307
:1016DF00F583E493FFEBFDC3EF9DF509E49400F56B
:1016EF0008EA04F50AE51D14D36480F8E50A64805E
:1016FF00985029E50B75F00DA42435F582E43424B8
:10170F00F583E582250AF582E43583F583E4932595
:10171F0009F509E43508F508050A80C9AF1EEF334E
:10172F0095E0FEEF2509F509EE35080217E4EAFF0B
:10173F00AD1DED3395E0FCC3ED9F7480F86C9850B0
:10174F0074AF1DEF3395E0FEE50B75F00DA4243556
:10175F00F582E43424F583E5822FF582E5833EF5A7
:10176F0083E493FFAD1EED3395E0FCC3EF9DF509C8
:10177F00E49CF508E51D04F50AEA14FFE50AD39F7A
:10178F005029E50B75F00DA42435F582E43424F5CA
:10179F0083E582250AF582E43583F583E4932509F1
:1017AF00F509E43508F508050A80CEEB2509F5099A
:1017BF00E435088048EBFFAD1EED3395E0FCD3ED2B
:1017CF009F7480F86C984014ED3395E0FCC3ED9F47
:1017DF00F509EC9400F508750C01802DEBFFAD1E9B
:1017EF00ED3395E0FCC3ED9F7480F86C985015AF06
:1017FF001EEF3395E0FEC3EB9FF509E49EF508E479
:10180F00F50C8005E4F508F509851C1C751D01759F
:10181F001E01E50945087004FB02198BE50C607C7D
:10182F00151C751D0CE51CF404FFC374639F75F044
:10183F0003A4F50DE50D9021DE93550E600474E2BF
:10184F00800274E32509F50974FF3508F508E50EE4
:10185F0025E0F50EE50D9021DD9354F0C4540FB53E
:10186F001D22E50F601EE4F50FE50D9021DF93308B
:10187F00E70474E2800274E32509F50974FF350863
:10188F00F50880B0D3E5099400E5086480948040A2
:10189F0004151D809FC374019509F51EE50C6003A7
:1018AF00021989751D01E51CF404FFC374639F754C
:1018BF00F003A4F50D9021DD93FEE50DA3937C00BD
:1018CF002400FFEC3EAD07FCE5105CFEE5115DFF6B
:1018DF004E600474E2800274E32509F50974FF3544
:1018EF0008F508C3E508648094804004051D801541
:1018FF00C3E50864809480500CEF4E6004741E8022
:10190F0066741D8062E510C313F510E51113F51110
:10191F00E50D9021DD9354F0C4540FFFE51D146FB6
:10192F0070A6E50F60A2E4F50F151DE5105CFEE54E
:10193F00115DFF4E600474E2800274E32509F5091E
:10194F0074FF3508F508C3E50864809480400505E9
:10195F001D0218D7C3E508648094805015EF4E60C0
:10196F0004741E8002741D2509F509E43508F50875
:10197F0080030218D7E50904F51E7B007A00791C55
:01198F002235
:1032FC00EF54037009EF75F06484E5F0700D7E00F7
:0F330C007C017D901215A8ED4C7002D322C322D4
:062BF0008D08AA07A903ED
:102BF600E4F509F50AEA24D0F50CE43407F50B7B75
:102C060001E50814D36480F8EB6480985037AF026E
:102C16001232FCE43390243575F00D121641E4753A
:102C2600F00DA42583F583EBFF3395E0FEE5822FB7
:102C3600F582E5833EF583E493250AF50AE4350932
:102C4600F5090B80BCE924FFFFE434FFFEEF250AFB
:102C5600F50AEE3509F509E50C24FFFBE50B34FF13
:102C6600FA7C007D04AF03FE1215FDEF2BFBEE3A56
:102C7600FAE50C24FFFFE50B34FFFE7C007D6412B1
:102C860015FDC3EB9FFBEA9EFAE50C24FFFFE50B5F
:102C960034FFFE7C017D901215FDEF2BFFEE3ACF3F
:102CA600250ACF3509FE7C007D071215FDED04FFD0
:012CB60022FB
:1010D20002141AE86480F8E933E83360110460F01E
:1010E200ED33EC337009E8FCE9FDEAFEEBFF220484
:1010F20060DED3EB9FEA9EE99DE8C2E78CF0C2F77F
:1011020095F0400CE8CCF8E9CDF9EACEFAEBCFFB4A
:101112001213E585D0F05804700320D5B3E80470AB
:10112200075002B2D502142492D5EC0460F7E4CC45
:10113200C0E0C398F8603B94186008400DD0E0FB13
:101142000213FCE4FBFAC9FC8028E830E406E4C997
:10115200FBE4CAFCE830E305E4C9CACBFCE8540767
:101162006010F8C3E913F9EA13FAEB13FBEC13FC72
:10117200D8F130F52FC3E49CFCEF9BFFEE9AFEED15
:1011820099FDD0E0FBEF4E4D4C701222DB030214AE
:1011920021EC2CFCEF33FFEE33FEED33FDED30E7B7
:1011A200EB0213FCEF2BFFEE3AFEED39FDD0E0FB34
:1011B20050130BBB0003021424ED13FDEE13FEEFDC
:0811C20013FFEC13FC0213FC07
:1011CA00EC4D6011E8497017ED33EC3304600DE41F
:1011DA00FCFFFEFD22E933E8330470F802141A1208
:1011EA0013E558046009E4CC24815006285009020A
:1011FA001424284003021421C0E0EB4A7044B98049
:10120A0006D0E0FB021410EF4E701CBD8008EBFF05
:10121A00EAFEE9FD80EBE98DF0A4FEE5F00212B3E7
:10122A00E9CDF9EAFEEBFFEF89F0A4FCE5F0CE89FF
:10123A00F0A42EFFE435F0CD89F0A42DFEE435F0BC
:10124A008067EF4E7005BD80D780C3EF8BF0A4ACEA
:10125A00F0EE8BF0A42CFCE435F0F8EF8AF0A42C25
:10126A00E5F038FCE433CB8DF0A42CFCE5F03BF838
:10127A00EE8AF0A42CFCE5F038F8E433CF89F0A428
:10128A002CFCE5F038CF3400CE89F0A42FFFE5F02E
:10129A003EFEE433C98DF0A42EFEE5F039CD8AF086
:1012AA00A42FFFE5F03EFEE43DFD33D0E0FB5007FE
:1012BA000BBB000F021424EC2CFCEF33FFEE33FEC1
:0612CA00ED33FD0213FCF0
:1012D000021424EC5D046005E85904700302141A3A
:1012E0001213E5580460F6EC4860F2EC7004FDFE61
:1012F000FF22C860DB2481C85009C39860025006F1
:101300000214219850CAF582E9294B4A7005AB8234
:1013100002141075F0007C1A7880C3EF9BEE9AEDF2
:1013200099400DC3EF9BFFEE9AFEED99FDE842F068
:10133000DC23ACF0D0E0FFD0E0FED0E0FDAB8220BB
:10134000E7101BEB60BAEC2CFCEF33FFEE33FEED45
:1013500033FD0213FCE803F830E705C0F075F00038
:10136000EF2FFFEE33FEED33FD40B830E7C280AA29
:1013700075F020800E75F010800575F0087D007EF8
:10138000007F003392D530D503121633EC33401072
:10139000EF33FFEE33FEED33FDEC33FCD5F0ED2201
:0E13A000E5F0247EA2D513CC92E7CDCEFF223D
:1013AE00EDD2E7CD33EC3392D524814006E4FFFE37
:1013BE00FDFC22FCE4CFCECDCC24E0501174FF8096
:1013CE00EDC3CC13CCCD13CDCE13CECF13CF047033
:0713DE00F030D5DE021633EA
:1013E500E9D2E7C933E833F892D5EDD2E7CD33EC4E
:0713F50033FC5002B2D522C7
:1013FC00EC30E7100FBF000C0EBE00080DBD000452
:10140C000BEB6014A2D5EB13FCED92E7FD2274FFFD
:10141C00FCFDFEFF22E480F8A2D574FF13FC7D8056
:03142C00E480EF6A
:03000000022E2AA3
:0C2E2A00787FE4F6D8FD758140022E711F
:10142F00E709F608DFFA8046E709F208DFFA803E9F
:10143F0088828C83E709F0A3DFFA8032E309F6088C
:10144F00DFFA8078E309F208DFFA807088828C83F4
:10145F00E309F0A3DFFA806489828A83E0A3F608A8
:10146F00DFFA805889828A83E0A3F208DFFA804C82
:10147F0080D280FA80C680D4806980F28033801059
:10148F0080A680EA809A80A880DA80E280CA8033C2
:10149F0089828A83ECFAE493A3C8C582C8CCC5833A
:1014AF00CCF0A3C8C582C8CCC583CCDFE9DEE7800A
:1014BF000D89828A83E493A3F608DFF9ECFAA9F089
:1014CF00EDFB2289828A83ECFAE0A3C8C582C8CCDF
:1014DF00C583CCF0A3C8C582C8CCC583CCDFEADEF8
:1014EF00E880DB89828A83E493A3F208DFF980CC5A
:1014FF0088F0EF60010E4E60C388F0ED2402B40453
:10150F000050B9F582EB2402B4040050AF232345F9
:06151F00822390147F738B
:10152500C2D530F707B2D563F0FF05F030E70CB24E
:10153500D5F4048463F0FF05F080018430D502F40E
:0215450004227E
:10154700BB010CE58229F582E5833AF583E0225059
:1015570006E92582F8E622BBFE06E92582F8E222A3
:0D156700E58229F582E5833AF583E49322BD
:10157400BB010689828A83F0225002F722BBFE0156
:02158400F32250
:10158600F8BB010DE58229F582E5833AF583E8F09B
:10159600225006E92582C8F622BBFE05E92582C847
:0215A600F2222F
:1015A800BC000BBE0029EF8DF084FFADF022E4CC27
:1015B800F875F008EF2FFFEE33FEEC33FCEE9DECF0
:1015C800984005FCEE9DFE0FD5F0E9E4CEFD22ED36
:1015D800F8F5F0EE8420D21CFEADF075F008EF2F80
:1015E800FFED33FD4007985006D5F0F222C398FD71
:0515F8000FD5F0EA220E
:1015FD00C2D5EC30E709B2D5E4C39DFDE49CFCEE09
:10160D0030E715B2D5E4C39FFFE49EFE1215A8C3C3
:10161D00E49DFDE49CFC80031215A830D507C3E4BE
:06162D009FFFE49EFE2277
:0E163300C3E49FFFE49EFEE49DFDE49CFC22C8
:0C164100A42582F582E5F03583F58322B4
:102E36000232BBE493A3F8E493A34003F68001F2C5
:102E460008DFF48029E493A3F85407240CC8C3339D
:102E5600C4540F4420C8834004F456800146F6DF6C
:102E6600E4800B0102040810204080903148E47E83
:102E7600019360BCA3FF543F30E509541FFEE49361
:102E8600A360010ECF54C025E060A840B8E493A328
:102E9600FAE493A3F8E493A3C8C582C8CAC583CA53
:102EA600F0A3C8C582C8CAC583CADFE9DEE780BE0B
:01317E000050
:00000001FF
