:0300000002042EC9
:0C042E00787FE4F6D8FD758113020212FD
:10026800414D435520484152445741524500444569
:1002780056454C4F504D454E54205445414D004134
:100288004D43552038394335310053544152544574
:100298005220204B49540030313233343536373808
:1002A80039003F065B4F666D7D077F6F201008049D
:0202B800020141
:0B03BE007BFF1203FCD2A97FB87E0B6E
:0B03C900EF1FAC0670011E4C70F62206
:1002ED00E4FDD2907F08FE1203C9C2907F507E00BC
:1002FD001203C9D2907F0E7E001203C9A290E4337F
:08030D00FD7F147E000203C90C
:10038300E4FB7D08C290EBC313FBD2903090034390
:0D03930003807F087E001203C9DDE9AF037F
:0103A000223A
:0803150012031D1202ED7FCC62
:02031D00AD072A
:10031F007B08C290ED1392907F0A7E001203C9D220
:0E032F0090EDC313FDDBEB7F087E000203C9D7
:1002BA00E4F513FF1203187F441203157FBE1203DD
:1002CA001D1203838F0B1203838F0CE50B540FF55A
:1002DA000DE50BC4540FF50BE50CC454F0F50C45B1
:0202EA000BFF08
:0102EC0022EF
:10033D00AA05A9071203187F4E12031DAF01120360
:10034D001DAF0212031D7F7F1203157F4812031587
:05035D007FB802031D42
:1003A1001203187FBE12031D120383AA07120383CF
:0C03B100AA071203838F081203838F0A2F
:0103BD00221D
:10040F00758901758CEC758A78D28CD2AFD2A922FE
:03000B0002000EE2
:10000E00C0E0C0F0C083C082C0D075D000C000C0B8
:0B001E0002C003C004C005C006C007FC
:10002900C28CC2AF758CEC758A78D28CD2AF0509B7
:10003900E509C394C840387509001202BA750E0063
:100049008F0FE50F30E722E50DF4FF540F75F00F20
:1000590084FDE50FF4FBEB2DFD751000ED547FF5E4
:1000690011EF04540FF50D8006850E10850F11E56B
:10007900129002B493F580E51214602514604014BF
:10008900700302012124036003020149438080E5D2
:100099000D75F00AA4FFAEF07C007D101201DC8022
:1000A90067438080AE10AF117C007D0A120187740E
:1000B900AA2DF58274023CF583E49344808055C3EC
:1000C900E511940AE51094005013C3E50F9480E5F7
:1000D9000E9400500843808075A0008060D3E50F1E
:1000E9009480E50E94004012E511940AE5109400FD
:1000F900500843808075A0408043438080AE10AF94
:10010900117C007D0A12018774AA2FF58274023EC0
:10011900F583E493F5A08025D3E50F9480E50E944B
:10012900004017AE10AF117C007D0A120187D3EF92
:100139009400EE9400400343808075A04053807F73
:0C0149000512E512C39403400375120078
:10015500D007D006D005D004D003D002D000D0D02F
:09016500D082D083D0F0D0E0324A
:1003D400C295C296D2948FA07F147E001203C9C224
:0403E40094D29522F8
:1003E800C295D296D2948FA07F147E001203C9C200
:0403F80094D29522E4
:1003FC0012016EFF600C1203E8740129F9E43AFA59
:03040C0080EE225D
:040362007C007E009D
:10036600AB07AA06EB64014A7005ED24808009EB11
:0D03760064024A7007ED24C0FF1203D42278
:0F041F007F381203D47F0C1203D47F6C0203D4F6
:0A043A007F011203D47F020203D4F5
:1002120012041F12043A12040FC2A912043A7D01F9
:100222007F011203627BFF7A0279681203FCE41DEC
:10023200FC7F02FE1203667A0279761203BEC2A91D
:1002420012043A7D037C007F017E001203667BFF6D
:100252007A0279871203FC1D7F021203627A027905
:06026200921203BE80B3FE
:10016E00BB010689828A83E0225002E722BBFE028F
:09017E00E32289828A83E49322C2
:10018700BC000BBE0029EF8DF084FFADF022E4CC5C
:10019700F875F008EF2FFFEE33FEEC33FCEE9DEC25
:1001A700984005FCEE9DFE0FD5F0E9E4CEFD22ED6B
:1001B700F8F5F0EE8420D21CFEADF075F008EF2FB5
:1001C700FFED33FD4007985006D5F0F222C398FDA6
:0501D7000FD5F0EA2243
:1001DC00C2D5EC30E709B2D5E4C39DFDE49CFCEE3E
:1001EC0030E715B2D5E4C39FFFE49EFE120187C32E
:1001FC00E49DFDE49CFC800312018730D507C3E429
:06020C009FFFE49EFE22AC
:00000001FF
