:0A007000C0F9A4B0999282F88090C4
:07007A00EF60031F80FA2272
:1000450020B40B7FC812007A30B4FD75080120B5C5
:0F0055000D7FC812007A20B50575090180F822C9
:10000300120045E508B4010E0EE4F508D3EE648052
:1000130094894002E4FEE509B4010E1EE4F509C328
:10002300EE6480948050027E09EEFD3395E0FC740B
:10003300702DF58274003CF583E493F58075A0FE82
:0200430080BE7D
:0300000002006497
:0C006400787FE4F6D8FD758109020003E6
:00000001FF
